:020000040000FA
:04000000FEEF7FF0A0
:10FD7C00F3EC7EF0FFD713C50BF514C50CF5120090
:10FD8C0013C509F514C50AF5120013C507F514C5FA
:10FD9C0008F5120013C501F514C502F5120013C5C0
:10FDAC0005F514C506F5120013C503F514C504F5C5
:10FDBC00120013C50DF514C50EF5120013C511F57F
:10FDCC0014C512F5120013C50FF514C510F5120069
:10FDDC00000EF86E0001BEEF7EF000EC7FF02CEC14
:10FDEC007FF046EC7FF012EC7FF07DEC7FF0B4EC12
:10FDFC007FF01200500E0001AD6F700EAE6F000E52
:10FE0C00AF6F000EB36F020EB16F000EB26F000E2B
:10FE1C00B06F000EAC6F1200000E0001D56F000E1B
:10FE2C00D76F150ED86F170ED96F000EDA6F000E44
:10FE3C00DB6F020EDC6F080EDD6F000EDE6F000E46
:10FE4C00DF6F000ED46F800ED66F1200D69AB4906E
:10FE5C00D680000E136E000E146EC1EC7EF0B990BD
:10FE6C00D682000E136E000E146EC6EC7EF0BD90A2
:10FE7C00D684000E136E000E146ECBEC7EF01200C6
:10FE8C00000E606E040E616E000E626E450E636EA7
:10FE9C00010E646E000E656E000E666E000E676ECF
:10FEAC00000E686E000E6A6EA30E6B6E000E6C6E0A
:10FEBC00A30E6D6E000E6E6EB79CB79E6790679228
:10FECC00AC9EAC9C000E136E000E146ED5EC7EF046
:10FEDC00000E136E000E146EDAEC7EF0000E136E34
:10FEEC00000E146ED0EC7EF0800E696E1200000EC7
:10FEFC006F6E040E706E000E716E470E726E010EF8
:10FF0C00736E000E746E000E756E000E766E000E23
:10FF1C00776E000E796EA40E7A6E000E7B6EA40EB8
:10FF2C007C6E000E7D6EB89CB89E76907692AD9EDF
:10FF3C00AD9C000E136E000E146EE4EC7EF0000E01
:10FF4C00136E000E146EE9EC7EF0000E136E000EB4
:10FF5C00146EDFEC7EF0800E786E1200000EBE6E1A
:10FF6C00000EBF6E000EC06E3F0EC66EF00EC76E5A
:10FF7C00FD0EC86E000E0401006F000E086F000E1F
:10FF8C00106F000E016F000E096F000E116F000E46
:10FF9C00026F000E0A6F000E126F370E036FF00E19
:10FFAC000B6F13693F0E046FF00E0C6F1469110E7A
:10FFBC000201526F020E616F150E576F130E586FC0
:10FFCC00050E516F010E126F000E0401056F000E2D
:10FFDC00066F000E076F000E0D6F000E0E6F000EF9
:10FFEC000F6F000E156F000E166F000E176F1200BC
:04FFFC00EEEF7EF0B6
:020000040020DA
:10000000FF0FFF0FFF0FFF0FFF0FFF0FFF0FFF0F80
:10001000FF0FFF0FFF0FFF0FFF0FFF0FFF0FFF0F70
:020000040030CA
:0A000000FFFFF7FF9FFFFFFFFFFF68
:00000001FF
